:04000000FEEFFFF020
:10FE480000000000000000000000000000000000AA
:10FE5800000000000000000000000000000000009A
:10FE6800000000000000000000000000000000008A
:10FE7800000000000000000000006937AC31682174
:10FE88002233B40F14336821A2333863ED3EDA0FFE
:10FE9800493F5E987B3FDA0FC93FDB0FC940E4CB8F
:10FEA8009640DB0F4940DB0FC93F3C6C3636CF0725
:10FEB80050B98488083CABAA2ABEA3858832DA0FD9
:10FEC800C93F83F9223F0000003F179ACC373F040F
:10FED800B6BA9FAA2A3D000000BFDB0FC940E4CB99
:10FEE8009640DB0F4940DB0FC93F25AC7C3D4712EC
:10FEF800DABD0DF5113E98CA4CBEA9AAAA3E2EBD80
:10FF0800BBB3DB0F4940496E636C696E6163696F0F
:10FF18006E20697A717569657264610045737065F0
:10FF280072616E646F206D6F76696D69656E746F4E
:10FF380000496E636C696E6163696F6E2061646508
:10FF48006C616E746500496E636C696E6163696F9C
:10FF58006E206465726563686100496E636C696EE2
:10FF68006163696F6E20617472617300503A202575
:10FF78002E316620523A20252E31660053696E20B4
:10FF88006D6F76696D69656E746F0047726163693C
:10FF98006173202020202000446573636F6E6F63B7
:10FFA80069646F00497A7175696572646100486FA8
:10FFB8006C612020202000536163756469646100CE
:10FFC8004164656C616E746500446572656368615F
:10FFD800004D5055204F4B004E6F20202000476F9A
:10FFE8006C706500417472617300696E66006E61C1
:07FFF8006E005369200000B8
:020000040001F9
:100000008DECB7F001C52CF602C52DF60601FB51AB
:100010002C5D0501FE6F0601FC512D590501FF6F96
:10002000FF5107E1080EFE5DD8B019EF80F01BEF1D
:1000300080F01DEF80F0DEEF86F05E0ECC6F060ED6
:10004000CD6F98EC8FF00009D8A429EF80F02BEF4A
:1000500080F02DEF80F0DEEF86F00501FA51FB1104
:10006000D8B435EF80F037EF80F05CEF82F066C6F1
:1000700009F567C60AF568C60BF569C60CF566C6CC
:1000800005F567C606F568C607F569C608F576EC96
:100090009DF005C522F506C523F507C524F508C55D
:1000A00025F55EC609F55FC60AF560C60BF561C6A3
:1000B0000CF55EC605F55FC606F560C607F561C6B8
:1000C00008F576EC9DF005C51EF506C51FF507C5BC
:1000D00020F508C521F51BEC9BF01EC52EF51FC5AC
:1000E0002FF520C530F521C531F589EC9FF02EC5DF
:1000F00028F62FC529F630C52AF631C52BF628C6B5
:10010000A7F529C6A8F52AC6A9F52BC6AAF562C681
:10011000A3F563C6A4F564C6A5F565C6A6F540ECCF
:1001200093F0A3C504F6A4C505F6A5C506F6A6C5B5
:1001300007F6000E096E000E0A6E340E0B6E430EAB
:100140000C6E04C605F505C606F506C607F507C616
:1001500008F576EC9DF005C553F506C554F507C5C1
:1001600055F508C556F5DB0E576E0F0E586E490E45
:10017000596E400E5A6E5DECA3F0050120EE08F0BA
:10018000FA51D926FB51DA2253C5DEF454C5DEF408
:1001900055C5DEF456C5DEF466C609F567C60AF530
:1001A00068C60BF569C60CF566C605F567C606F5A3
:1001B00068C607F569C608F576EC9DF005C522F519
:1001C00006C523F507C524F508C525F562C609F55A
:1001D00063C60AF564C60BF565C60CF562C605F57F
:1001E00063C606F564C607F565C608F576EC9DF0AE
:1001F00005C51EF506C51FF507C520F508C521F57F
:100200001BEC9BF01EC52EF51FC52FF520C530F544
:1002100021C531F589EC9FF02EC528F62FC529F6AA
:1002200030C52AF631C52BF65EC601F55FC602F56C
:1002300060C603F561C604F557ECB6F001C508F6D3
:1002400002C509F603C50AF604C50BF628C6A7F5CC
:1002500029C6A8F52AC6A9F52BC6AAF508C6A3F58E
:1002600009C6A4F50AC6A5F50BC6A6F540EC93F0A1
:10027000A3C50CF6A4C50DF6A5C50EF6A6C50FF6CA
:10028000000E096E000E0A6E340E0B6E430E0C6EDD
:100290000CC605F50DC606F50EC607F50FC608F522
:1002A00076EC9DF005C553F506C554F507C555F523
:1002B00008C556F5DB0E576E0F0E586E490E596E77
:1002C000400E5A6E5DECA3F0050120EE04F0FA51E9
:1002D000D926FB51DA2253C5DEF454C5DEF455C5E8
:1002E000DEF456C5DEF40601FB512C5D0501FE6F00
:1002F0000601FC512D590501FF6FFEC501F5FFC533
:1003000002F5036A046A000ECCECABF001C553F5AC
:1003100002C554F503C555F504C556F5000E576ED4
:10032000000E586E7A0E596E440E5A6E5DECA3F0B4
:1003300053C500F654C501F655C502F656C503F679
:10034000F1C61EF5F2C61FF5F3C620F5F4C621F579
:1003500000C609F501C60AF502C60BF503C60CF581
:1003600072C605F573C606F574C607F575C608F5B9
:1003700076EC9DF005C522F506C523F507C524F5E5
:1003800008C525F51BEC9BF01EC5F1F61FC5F2F65E
:1003900020C5F3F621C5F4F6FAC5D9F4FBC5DAF4A5
:1003A000F1C6DEF4F2C6DEF4F3C6DEF4F4C6DEF423
:1003B000FEEF81F0FAC5D9F4FBC5DAF4DEC46DF5C1
:1003C000DEC46EF5DEC46FF5DEC470F5000E050107
:1003D000716F000E726FB40E736F430E746FD5ECB5
:1003E000B5F0FAC5D9F4FBC5DAF405016DC5DEF444
:1003F0006EC5DEF46FC5DEF470C5DEF4000E1E6E51
:10040000000E1F6E340E206E430E216EFAC5D9F415
:10041000FBC5DAF4DEC422F5DEC423F5DEC424F520
:10042000DEC425F527ECB0F0D8A019EF82F01BEF61
:1004300082F0DAEF81F03FEF82F0FAC5D9F4FBC524
:10044000DAF4DEC41EF5DEC41FF5DEC420F5DEC41A
:1004500021F5000E226E000E236EB40E246E430EA4
:10046000256E1BEC9BF0FAC5D9F4FBC5DAF41EC56A
:10047000DEF41FC5DEF420C5DEF421C5DEF4FAC5C6
:10048000D9F4FBC5DAF4DEC41EF5DEC41FF5DEC404
:1004900020F5DEC421F5000E226E000E236E340E10
:1004A000246EC30E256E27ECB0F0D8A05AEF82F070
:1004B0005CEF82F01DEF82F00501FC51FD11D8B414
:1004C00064EF82F066EF82F0DAEF86F0000E096EDC
:1004D000000E0A6E000E0B6E3F0E0C6E20EE08F042
:1004E000FA51D926FB51DA22DEC405F5DEC406F541
:1004F000DEC407F5DEC408F576EC9DF005C52EF6E2
:1005000006C52FF607C530F608C531F6DB0E096EB5
:100510000F0E0A6E490E0B6E400E0C6E2EC605F5C0
:100520002FC606F530C607F531C608F576EC9DF006
:1005300005C553F506C554F507C555F508C556F567
:10054000000E576E000E586E340E596E430E5A6EE2
:100550005DECA3F053C552F654C553F655C554F699
:1005600056C555F6000E096E000E0A6E000E0B6E93
:100570003F0E0C6E050120EE04F0FA51D926FB5116
:10058000DA22DEC405F5DEC406F5DEC407F5DEC4F6
:1005900008F576EC9DF005C52EF606C52FF607C5C5
:1005A00030F608C531F6DB0E096E0F0E0A6E490EE5
:1005B0000B6E400E0C6E2EC605F52FC606F530C626
:1005C00007F531C608F576EC9DF005C553F506C56F
:1005D00054F507C555F508C556F5000E576E000EC3
:1005E000586E340E596E430E5A6E5DECA3F053C52F
:1005F00056F654C557F655C558F656C559F6000E69
:10060000096E000E0A6E000E0B6E3F0E0C6EFAC5E0
:10061000D9F4FBC5DAF4DEC405F5DEC406F5DEC4A4
:1006200007F5DEC408F576EC9DF005C52EF606C587
:100630002FF607C530F608C531F6DB0E096E0F0E32
:100640000A6E490E0B6E400E0C6E2EC605F52FC6B7
:1006500006F530C607F531C608F576EC9DF005C500
:1006600053F506C554F507C555F508C556F5000EF2
:10067000576E000E586E340E596E430E5A6E5DEC76
:10068000A3F053C55AF654C55BF655C55CF656C57E
:100690005DF656C696F557C697F558C698F559C6ED
:1006A00099F5A6EC98F096C532F697C533F698C53D
:1006B00034F699C535F652C696F553C697F554C625
:1006C00098F555C699F5A6EC98F096C536F697C5F7
:1006D00037F698C538F699C539F65AC696F55BC609
:1006E00097F55CC698F55DC699F5A6EC98F096C5A9
:1006F0003AF697C53BF698C53CF699C53DF632C625
:1007000009F533C60AF534C60BF535C60CF536C601
:1007100005F537C606F538C607F539C608F576EC8F
:100720009DF005C54AF606C54BF607C54CF608C54B
:100730004DF656C696F557C697F558C698F559C65C
:1007400099F51FEC96F096C53EF697C53FF698C50D
:1007500040F699C541F652C696F553C697F554C66C
:1007600098F555C699F51FEC96F096C542F697C5D3
:1007700043F698C544F699C545F65AC696F55BC644
:1007800097F55CC698F55DC699F51FEC96F096C591
:1007900046F697C547F698C548F699C549F63EC648
:1007A00009F53FC60AF540C60BF541C60CF542C631
:1007B00005F543C606F544C607F545C608F576ECCB
:1007C0009DF005C54EF606C54FF607C550F608C59F
:1007D00051F63AC609F53BC60AF53CC60BF53DC6CF
:1007E0000CF54AC605F54BC606F54CC607F54DC6D1
:1007F00008F576EC9DF005C51EF506C51FF507C585
:1008000020F508C521F546C609F547C60AF548C6CC
:100810000BF549C60CF54EC605F54FC606F550C694
:1008200007F551C608F576EC9DF005C522F506C51D
:1008300023F507C524F508C525F51BEC9BF0FCC581
:10084000D9F4FDC5DAF41EC5DEF41FC5DEF420C5FB
:10085000DEF421C5DEF456C696F557C697F558C6A0
:1008600098F559C699F5A6EC98F096C532F697C555
:1008700033F698C534F699C535F652C696F553C683
:1008800097F554C698F555C699F51FEC96F096C5A0
:1008900010F697C511F698C512F699C513F65AC603
:1008A00096F55BC697F55CC698F55DC699F5A6EC1E
:1008B00098F096C53AF697C53BF698C53CF699C5AB
:1008C0003DF632C609F533C60AF534C60BF535C612
:1008D0000CF510C605F511C606F512C607F513C6C8
:1008E00008F576EC9DF005C54AF606C54BF607C53A
:1008F0004CF608C54DF656C696F557C697F558C638
:1009000098F559C699F51FEC96F096C53EF697C531
:100910003FF698C540F699C541F652C696F553C6BE
:1009200097F554C698F555C699F5A6EC98F096C576
:1009300014F697C515F698C516F699C517F65AC652
:1009400096F55BC697F55CC698F55DC699F51FEC04
:1009500096F096C546F697C547F698C548F699C5E8
:1009600049F63EC609F53FC60AF540C60BF541C635
:100970000CF514C605F515C606F516C607F517C617
:1009800008F576EC9DF005C54EF606C54FF607C591
:1009900050F608C551F63AC609F53BC60AF53CC6FD
:1009A0000BF53DC60CF54AC605F54BC606F54CC61B
:1009B00007F54DC608F576EC9DF005C56DF506C545
:1009C0006EF507C56FF508C570F546C609F547C64B
:1009D0000AF548C60BF549C60CF54EC605F54FC6D7
:1009E00006F550C607F551C608F576EC9DF005C52D
:1009F00071F506C572F507C573F508C574F5D5EC34
:100A0000B5F0050120EE04F0FC51D926FD51DA22A3
:100A10006DC5DEF46EC5DEF46FC5DEF470C5DEF4C0
:100A200056C696F557C697F558C698F559C699F51E
:100A30001FEC96F096C518F697C519F698C51AF6E4
:100A400099C51BF652C696F553C697F554C698F548
:100A500055C699F5A6EC98F096C536F697C537F6C3
:100A600098C538F699C539F65AC696F55BC697F516
:100A70005CC698F55DC699F5A6EC98F096C53AF671
:100A800097C53BF698C53CF699C53DF618C609F5DD
:100A900019C60AF51AC60BF51BC60CF536C605F5C0
:100AA00037C606F538C607F539C608F576EC9DF069
:100AB00005C54AF606C54BF607C54CF608C54DF602
:100AC00056C696F557C697F558C698F559C699F57E
:100AD000A6EC98F096C51CF697C51DF698C51EF6AF
:100AE00099C51FF652C696F553C697F554C698F5A4
:100AF00055C699F51FEC96F096C542F697C543F694
:100B000098C544F699C545F65AC696F55BC697F55D
:100B10005CC698F55DC699F51FEC96F096C546F64D
:100B200097C547F698C548F699C549F61CC609F514
:100B30001DC60AF51EC60BF51FC60CF542C605F507
:100B400043C606F544C607F545C608F576EC9DF0A4
:100B500005C54EF606C54FF607C550F608C551F651
:100B60003AC609F53BC60AF53CC60BF53DC60CF581
:100B70004AC605F54BC606F54CC607F54DC608F541
:100B800076EC9DF005C51EF506C51FF507C520F5D9
:100B900008C521F546C609F547C60AF548C60BF54E
:100BA00049C60CF54EC605F54FC606F550C607F505
:100BB00051C608F576EC9DF005C522F506C523F56E
:100BC00007C524F508C525F51BEC9BF0050120EEB3
:100BD00008F0FC51D926FD51DA221EC5DEF41FC5EE
:100BE000DEF420C5DEF421C5DEF456C696F557C600
:100BF00097F558C698F559C699F5A6EC98F096C59C
:100C000032F697C533F698C534F699C535F652C60F
:100C100096F553C697F554C698F555C699F5A6ECC2
:100C200098F096C536F697C537F698C538F699C543
:100C300039F65AC696F55BC697F55CC698F55DC65B
:100C400099F51FEC96F096C520F697C521F698C544
:100C500022F699C523F632C609F533C60AF534C61D
:100C60000BF535C60CF536C605F537C606F538C69C
:100C700007F539C608F576EC9DF005C54AF606C5B8
:100C80004BF607C54CF608C54DF656C696F557C641
:100C900097F558C698F559C699F51FEC96F096C584
:100CA0003EF697C53FF698C540F699C541F652C63F
:100CB00096F553C697F554C698F555C699F51FECA9
:100CC00096F096C542F697C543F698C544F699C581
:100CD00045F65AC696F55BC697F55CC698F55DC6AF
:100CE00099F5A6EC98F096C524F697C525F698C513
:100CF00026F699C527F63EC609F53FC60AF540C651
:100D00000BF541C60CF542C605F543C606F544C6CB
:100D100007F545C608F576EC9DF005C54EF606C507
:100D20004FF607C550F608C551F620C609F521C68D
:100D30000AF522C60BF523C60CF54AC605F54BC6C7
:100D400006F54CC607F54DC608F576EC9DF005C5D1
:100D50006DF506C56EF507C56FF508C570F524C6B7
:100D600009F525C60AF526C60BF527C60CF54EC6AD
:100D700005F54FC606F550C607F551C608F576ECE1
:100D80009DF005C571F506C572F507C573F508C573
:100D900074F5D5ECB5F0050120EE0CF0FC51D92628
:100DA000FD51DA226DC5DEF46EC5DEF46FC5DEF4EA
:100DB00070C5DEF42CC6FBF62DC6FCF6120005014C
:100DC000AB6B83C5AEF584C5AFF585C5B0F586C5FB
:100DD000B1F5B1BFF0EF86F0EEEF86F004EF87F0EB
:100DE000010EAB6FAEC501F5AFC502F5B0C503F599
:100DF000B1C504F557ECB6F001C5AEF502C5AFF5C7
:100E000003C5B0F504C5B1F5000E0501AD6F000EC8
:100E1000AC6FF5C69BF5F6C69CF5AB51D8B413EF95
:100E200087F015EF87F029EF87F0AB51D8A41BEFBF
:100E300087F01DEF87F023EF87F0000E916F2B0EE8
:100E4000906F27EF87F0000E916F2D0E906F90C579
:100E5000ABF5AEC501F5AFC502F5B0C503F5B1C53B
:100E600004F52BECB1F001040210D8A43AEF87F09E
:100E70003CEF87F06FEF87F00501AB51D8B443EF3B
:100E800087F045EF87F04EEF87F0ABC500F89B0782
:100E9000D8A09C07000EAD6F010EAC6F000EAC2504
:100EA000016E080EAD21026EF20E036EFF0E046E8F
:100EB00039ECB6F00501FD0E9B27FF0E9C2381C582
:100EC00011F582C512F5000E136E080E146E9BC547
:100ED00015F59CC516F549ECB4F0DAEF8BF0AEC50C
:100EE00001F5AFC502F5B0C503F5B1C504F52BECAE
:100EF000B1F001500210D8A480EF87F082EF87F0A4
:100F0000A2EF87F00501AB51D8B489EF87F08BEFE2
:100F100087F094EF87F0ABC500F89B07D8A09C073B
:100F2000000EAD6F010EAC6F000EAC25016E080E09
:100F3000AD21026EF60E036EFF0E046E39ECB6F0B4
:100F40005AEF87F0000E0501B26F000EB36F800EEE
:100F5000B46F3F0EB56F000E9A6F000E996FAEC55D
:100F600001F5AFC502F5B0C503F5B1C504F5000E36
:100F7000056E000E066E000E076E000E086EECEC9D
:100F8000B2F0D8B0C6EF87F0C8EF87F0A7EF88F0CF
:100F9000D5EF87F09DC5B2F59EC5B3F59FC5B4F5F5
:100FA000A0C5B5F50501994B9A2BB2C505F5B3C59A
:100FB00006F5B4C507F5B5C508F5000E096E000EB7
:100FC0000A6E200E0B6E410E0C6E76EC9DF005C580
:100FD0009DF506C59EF507C59FF508C5A0F5050159
:100FE0009D51AE5D016E9E51AF59026E9F51B05939
:100FF000036EA051B159046E09ECB5F004BE0CEFBC
:1010000088F004500310021009E1020E015CD8A020
:101010000CEF88F00EEF88F0CAEF87F09DC51EF543
:101020009EC51FF59FC520F5A0C521F5AEC522F5CB
:10103000AFC523F5B0C524F5B1C525F527ECB0F053
:10104000D8A025EF88F027EF88F0CAEF87F00501D8
:10105000B251AE5D016EB351AF59026EB451B05989
:10106000036EB551B159046E09ECB5F004BE46EFFC
:1010700088F004500310021007E1020E015CD8B0A2
:1010800044EF88F046EF88F08EEF88F0B2C5AEF5F9
:10109000B3C5AFF5B4C5B0F5B5C5B1F5A7EF88F0E8
:1010A000B2C553F5B3C554F5B4C555F5B5C556F538
:1010B000000E576E000E586E200E596E410E5A6E7D
:1010C0005DECA3F053C5B2F554C5B3F555C5B4F501
:1010D00056C5B5F505019907D8A09A07B251AE5D7E
:1010E000016EB351AF59026EB451B059036EB55190
:1010F000B159046E09ECB5F004BE8CEF88F00450D1
:101100000310021007E1020E015CD8B08AEF88F0EC
:101110008CEF88F08EEF88F046EF88F0AEC51EF5B4
:10112000AFC51FF5B0C520F5B1C521F5B2C522F593
:10113000B3C523F5B4C524F5B5C525F527ECB0F046
:10114000D8A0A5EF88F0A7EF88F050EF88F087C50A
:1011500093F593C594F50601F8BFB1EF88F0B3EFAE
:1011600088F0B9EF88F0F7C68CF5F8C68DF5BEEFBC
:1011700088F0000E05018D6F060E8C6F8CC597F5FB
:101180008DC598F50501974B982B660E9419D8A438
:10119000CCEF88F0CEEF88F0EEEF88F09ABFD5EF75
:1011A00088F0D3EF88F0E1EF88F0000EB26F000E08
:1011B000B36F800EB46F3F0EB56F000E9A6F000EC6
:1011C000996F670E9319D8B4E8EF88F0EAEF88F0CA
:1011D000EEEF88F0995197279A519823000EA26F4D
:1011E000000EA16FAEC5A3F5AFC5A4F5B0C5A5F5BA
:1011F000B1C5A6F5B2C59DF5B3C59EF5B4C59FF5BD
:10120000B5C5A0F57FEF89F0A3C553F5A4C554F586
:10121000A5C555F5A6C556F5B2C557F5B3C558F5DC
:10122000B4C559F5B5C55AF55DECA3F053C56DF5D8
:1012300054C56EF555C56FF556C570F5C2ECA9F0ED
:101240006DC5A7F56EC5A8F56FC5A9F570C5AAF55A
:10125000A7C52EF5A8C52FF5A9C530F5AAC531F546
:10126000A4ECAFF02EC595F52FC596F5A3C56DF589
:10127000A4C56EF5A5C56FF5A6C570F5A7C509F59A
:10128000A8C50AF5A9C50BF5AAC50CF5B2C505F5A3
:10129000B3C506F5B4C507F5B5C508F576EC9DF000
:1012A00005C571F506C572F507C573F508C574F572
:1012B000D5ECB5F06DC5A3F56EC5A4F56FC5A5F564
:1012C00070C5A6F5B2C553F5B3C554F5B4C555F50B
:1012D000B5C556F5000E576E000E586E200E596EAD
:1012E000410E5A6E5DECA3F053C5B2F554C5B3F58B
:1012F00055C5B4F556C5B5F50501A14BA22B9751BF
:10130000A15DA251800A886F9851800A8859D8A09F
:101310008CEF89F08EEF89F004EF89F0B2C505F506
:10132000B3C506F5B4C507F5B5C508F5000E096ED9
:10133000000E0A6EA00E0B6E400E0C6E76EC9DF049
:1013400005C5A7F506C5A8F507C5A9F508C5AAF5F9
:10135000A3C51EF5A4C51FF5A5C520F5A6C521F595
:10136000A7C522F5A8C523F5A9C524F5AAC525F565
:1013700027ECB0F0D8B0BFEF89F0C1EF89F0CCEF27
:1013800089F0000E0501A76F000EA86F000EA96F6F
:10139000000EAA6FF5EF89F0A3C501F5A4C502F50B
:1013A000A5C503F5A6C504F5A7C505F5A8C506F5A9
:1013B000A9C507F5AAC508F5ECECB2F0D8A0E3EF93
:1013C00089F0E5EF89F0F5EF89F0050195B1EBEFD4
:1013D00089F0EDEF89F0F5EF89F0000EA76F000EB0
:1013E000A86F000EA96F000EAA6FAEC51EF5AFC59F
:1013F0001FF5B0C520F5B1C521F5A7C522F5A8C5D3
:1014000023F5A9C524F5AAC525F51BEC9BF01EC53F
:10141000A3F51FC5A4F520C5A5F521C5A6F5A3C54F
:101420001EF5A4C51FF5A5C520F5A6C521F5000E1E
:10143000096E000E0A6E200E0B6E410E0C6E9DC5DD
:1014400005F59EC506F59FC507F5A0C508F576EC20
:101450009DF005C522F506C523F507C524F508C589
:1014600025F527ECB0F0D8A038EF8AF03AEF8AF0F3
:1014700063EF8AF00501994B9A2B9DC505F59EC532
:1014800006F59FC507F5A0C508F5000E096E000E0C
:101490000A6E200E0B6E410E0C6E76EC9DF005C5AB
:1014A0009DF506C59EF507C59FF508C5A0F5660E16
:1014B00005019419D8A45FEF8AF061EF8AF063EF19
:1014C0008AF0974B982B9DC5B2F59EC5B3F59FC585
:1014D000B4F5A0C5B5F599C58AF59AC58BF5050192
:1014E000926B000E8F6F000E8E6F000EA26F000EBB
:1014F000A16F60EF8BF0A3C553F5A4C554F5A5C546
:1015000055F5A6C556F5B2C557F5B3C558F5B4C5DA
:1015100059F5B5C55AF55DECA3F053C56DF554C545
:101520006EF555C56FF556C570F5C2ECA9F06DC5E1
:10153000A7F56EC5A8F56FC5A9F570C5AAF5A7C52D
:101540002EF5A8C52FF5A9C530F5AAC531F5A4EC2F
:10155000AFF02FBEB7EF8AF02F5007E10A0E2E5CD6
:10156000D8B0B5EF8AF0B7EF8AF0C7EF8AF0A7C519
:101570002EF5A8C52FF5A9C530F5AAC531F5A4ECFF
:10158000AFF02EC595F52FC596F5CCEF8AF0000E7D
:101590000501966F090E956F05019251D8A4D3EFFE
:1015A0008AF0D5EF8AF0FDEF8AF08BBFDCEF8AF08E
:1015B000DAEF8AF0FDEF8AF0000EAC25D96E080E46
:1015C000AD21DA6E2E0EDF6EAC4BAD2B9B07D8A093
:1015D0009C07010E926FFDEF8AF0000EAC25D96ECC
:1015E000080EAD21DA6E300EDF6EAC4BAD2B9B07D3
:1015F000D8A09C078E07D8A08F078E518F11D8A432
:1016000004EF8BF006EF8BF0EDEF8AF0000EAC25C7
:10161000D96E080EAD21DA6E9551300FDF6EAC4BEE
:10162000AD2B9B07D8A09C07A3C56DF5A4C56EF58F
:10163000A5C56FF5A6C570F5A7C509F5A8C50AF536
:10164000A9C50BF5AAC50CF5B2C505F5B3C506F5D8
:10165000B4C507F5B5C508F576EC9DF005C571F57F
:1016600006C572F507C573F508C574F5D5ECB5F078
:101670006DC5A3F56EC5A4F56FC5A5F570C5A6F536
:10168000B2C553F5B3C554F5B4C555F5B5C556F552
:10169000000E576E000E586E200E596E410E5A6E97
:1016A0005DECA3F053C5B2F554C5B3F555C5B4F51B
:1016B00056C5B5F505018A07D8A08B07A14BA22B0B
:1016C0009751A15DA251800A886F9851800A88596C
:1016D000D8B06DEF8BF06FEF8BF07DEF8BF0ADBF7F
:1016E0007BEF8BF0AD5109E14B0EAC5DD8A07BEFE9
:1016F0008BF07DEF8BF07BEF8AF0000EA26F4F0E28
:10170000A16F000EA125D96E080EA221DA6EDF6A44
:10171000000E886F080E896FAC51885FAD51895BF0
:10172000A1518825016EA2518921026E000E036E1F
:10173000080E046EACC505F5ADC506F585ECB5F033
:101740000501AC51A15DAC6FAD51A259AD6FAB516C
:10175000D8A4ADEF8BF0B0EF8BF0010EB1EF8BF0B2
:10176000000EA16FA26BAB51D8B4B9EF8BF0BBEFF9
:101770008BF0C6EF8BF0AC07D8A0AD07000EAC2500
:10178000D96E080EAD21DA6EABC5DFF4A1519B5FB7
:10179000A2519C5B81C511F582C512F5000EAC25E6
:1017A000136E080EAD21146E9BC515F59CC516F57C
:1017B00049ECB4F0120075C59FF576C5A0F577C564
:1017C000A1F578C5A2F50501A2BFE9EF8BF0ECEF1A
:1017D0008BF0010EEDEF8BF0000E956FA29F800E47
:1017E000A15D4C0EA259D8A0F8EF8BF0FAEF8BF068
:1017F00062EF8CF075C501F576C502F577C503F586
:1018000078C504F52BECB1F001500210D8A40BEF11
:101810008CF00DEF8CF017EF8CF075C575F576C573
:1018200076F577C577F578C578F597EF8FF09E0E4A
:10183000F66EFE0EF76E000EF86E0900F5C41EF58A
:101840000900F5C41FF50900F5C420F50A00F5C428
:1018500021F5000E226E000E236E800E246E030E04
:10186000256E1BEC9BF01EC59BF51FC59CF520C586
:101870009DF521C59EF505019551D8A442EF8CF048
:1018800044EF8CF04EEF8CF09BC575F59CC576F55A
:101890009DC577F59EC578F597EF8FF09BC501F54F
:1018A0009CC502F59DC503F59EC504F557ECB6F041
:1018B00001C575F502C576F503C577F504C578F55C
:1018C00097EF8FF0E00EA15D3E0EA259D8B06BEFFE
:1018D0008CF06DEF8CF07DEF8CF0800EA15D390EF9
:1018E000A259D8B076EF8CF078EF8CF07AEF8CF0CC
:1018F0000DEF8CF09A69B6EF8DF075C56DF576C574
:101900006EF577C56FF578C570F573ECB6F06DC5FB
:1019100075F56EC576F56FC577F570C578F5980ED7
:101920000501A15D3F0EA259D8B099EF8CF09BEF55
:101930008CF03BEF8DF0300EA15D3F0EA259D8B078
:10194000A4EF8CF0A6EF8CF0F9EF8CF09A6B000E00
:10195000226E000E236E800E246EBF0E256E000ECA
:10196000096E000E0A6E000E0B6E400E0C6E75C5F1
:1019700005F576C506F577C507F578C508F576EC63
:101980009DF005C51EF506C51FF507C520F508C560
:1019900021F51BEC9BF01EC553F51FC554F520C562
:1019A00055F521C556F5000E226E000E236E000E71
:1019B000246E400E256E75C51EF576C51FF577C5DC
:1019C00020F578C521F51BEC9BF01EC557F51FC50A
:1019D00058F520C559F521C55AF55DECA3F053C55E
:1019E00075F554C576F555C577F556C578F5B6EF56
:1019F0008DF0010E9A6F000E226E000E236E800E87
:101A0000246EBF0E256E75C51EF576C51FF577C50C
:101A100020F578C521F51BEC9BF01EC553F51FC5BD
:101A200054F520C555F521C556F5000E226E000E61
:101A3000236E800E246E3F0E256E75C51EF576C58D
:101A40001FF577C520F578C521F51BEC9BF01EC569
:101A500057F51FC558F520C559F521C55AF55DEC58
:101A6000A3F053C575F554C576F555C577F556C53C
:101A700078F5B6EF8DF01C0EA15D400EA259D8B0DE
:101A800044EF8DF046EF8DF09AEF8DF0020E9A6FD5
:101A9000000E226E000E236EC00E246EBF0E256E49
:101AA00075C51EF576C51FF577C520F578C521F5F6
:101AB0001BEC9BF01EC553F51FC554F520C555F50D
:101AC00021C556F5000E226E000E236E800E246E88
:101AD0003F0E256E000E096E000E0A6EC00E0B6ED4
:101AE0003F0E0C6E75C505F576C506F577C507F58D
:101AF00078C508F576EC9DF005C51EF506C51FF501
:101B000007C520F508C521F51BEC9BF01EC557F550
:101B10001FC558F520C559F521C55AF55DECA3F050
:101B200053C575F554C576F555C577F556C578F5A1
:101B3000B6EF8DF0030E9A6F000E536E000E546ECA
:101B4000800E556EBF0E566E75C557F576C558F5A5
:101B500077C559F578C55AF55DECA3F053C575F511
:101B600054C576F555C577F556C578F575C505F5AF
:101B700076C506F577C507F578C508F575C509F585
:101B800076C50AF577C50BF578C50CF576EC9DF0B2
:101B900005C59BF506C59CF507C59DF508C59EF5D1
:101BA0009BC505F59CC506F59DC507F59EC508F5C1
:101BB0009BC509F59CC50AF59DC50BF59EC50CF5A1
:101BC00076EC9DF005C596F506C597F507C598F521
:101BD00008C599F50D0E226EF50E236E110E246EBA
:101BE0003E0E256E250E096EAC0E0A6E7C0E0B6E37
:101BF0003D0E0C6E96C505F597C506F598C507F51B
:101C000099C508F576EC9DF005C51EF506C51FF5CE
:101C100007C520F508C521F51BEC9BF01EC58DF509
:101C20001FC58EF520C58FF521C590F5A90E226E32
:101C3000AA0E236EAA0E246E3E0E256E96C509F5D9
:101C400097C50AF598C50BF599C50CF58DC505F531
:101C50008EC506F58FC507F590C508F576EC9DF0A5
:101C600005C51EF506C51FF507C520F508C521F5F4
:101C70001BEC9BF01EC579F51FC57AF520C57BF5D9
:101C800021C57CF579C505F57AC506F57BC507F54F
:101C90007CC508F59BC509F59CC50AF59DC50BF5E6
:101CA0009EC50CF576EC9DF005C585F506C586F557
:101CB00007C587F508C588F5980E226ECA0E236EF3
:101CC0004C0E246EBE0E256E470E096E120E0A6E65
:101CD000DA0E0B6EBD0E0C6E96C505F597C506F5B2
:101CE00098C507F599C508F576EC9DF005C51EF574
:101CF00006C51FF507C520F508C521F51BEC9BF0AF
:101D00001EC58DF51FC58EF520C58FF521C590F533
:101D10008DC505F58EC506F58FC507F590C508F587
:101D200096C509F597C50AF598C50BF599C50CF543
:101D300076EC9DF005C589F506C58AF507C58BF5D6
:101D400008C58CF505019ABFAAEF8EF0A8EF8EF0BA
:101D5000F2EF8EF075C509F576C50AF577C50BF576
:101D600078C50CF589C522F58AC523F58BC524F500
:101D70008CC525F585C51EF586C51FF587C520F5DB
:101D800088C521F51BEC9BF01EC505F51FC506F5A2
:101D900020C507F521C508F576EC9DF005C591F540
:101DA00006C592F507C593F508C594F575C56DF59B
:101DB00076C56EF577C56FF578C570F591C571F587
:101DC00092C572F593C573F594C574F5D5ECB5F06D
:101DD0006DC575F56EC576F56FC577F570C578F587
:101DE00097EF8FF075C509F576C50AF577C50BF540
:101DF00078C50CF589C522F58AC523F58BC524F570
:101E00008CC525F585C51EF586C51FF587C520F54A
:101E100088C521F51BEC9BF01EC505F51FC506F511
:101E200020C507F521C508F576EC9DF005C591F5AF
:101E300006C592F507C593F508C594F505019A51B5
:101E4000040D820EF324F66EFE0EF420F76EF86A8F
:101E5000000EF8220900F5C471F50900F5C472F509
:101E60000900F5C473F50A00F5C474F591C56DF564
:101E700092C56EF593C56FF594C570F5D5ECB5F0C8
:101E80006DC57DF56EC57EF56FC57FF570C580F5B6
:101E900075C571F576C572F577C573F578C574F5B6
:101EA0007DC56DF57EC56EF57FC56FF580C570F596
:101EB000D5ECB5F06DC581F56EC582F56FC583F5BE
:101EC00070C584F505019A51040D920EF324F66E47
:101ED000FE0EF420F76EF86A000EF8220900F5C431
:101EE0006DF50900F5C46EF50900F5C46FF50A003B
:101EF000F5C470F581C571F582C572F583C573F5BA
:101F000084C574F5D5ECB5F06DC59BF56EC59CF533
:101F10006FC59DF570C59EF505019551D8A493EF49
:101F20008FF095EF8FF04EEF8CF044EF8CF01200B5
:101F3000DA0E136E050E146E0E0E156E3B0EF1ECDE
:101F4000B6F00009D8A4A7EF8FF0A9EF8FF0ACEF9F
:101F50008FF0000E3FEF93F0DBC501F50501DA517C
:101F60006BECB7F001C5E8F502C5E9F5DDC501F593
:101F70000501DC516BECB7F001C5EAF502C5EBF5E4
:101F8000DFC501F50501DE516BECB7F001C5ECF5DD
:101F900002C5EDF5000E576E000E586E000E596E1C
:101FA000460E5A6EE8C501F5E9C502F5000E02BEFF
:101FB000FF0E036E046E010ECCECABF001C553F5C1
:101FC00002C554F503C555F504C556F55DECA3F0FF
:101FD00053C56DF554C56EF555C56FF556C570F50D
:101FE000E5C671F5E6C672F5E7C673F5E8C674F5A1
:101FF000D5ECB5F0CCC5D9F4CDC5DAF405016DC585
:10200000DEF46EC5DEF46FC5DEF470C5DEF4000EDE
:10201000576E000E586E000E596E460E5A6EEAC587
:1020200001F5EBC502F5000E02BEFF0E036E046E55
:10203000010ECCECABF001C553F502C554F503C558
:1020400055F504C556F55DECA3F053C56DF554C5C3
:102050006EF555C56FF556C570F5E9C671F5EAC65A
:1020600072F5EBC673F5ECC674F5D5ECB5F0050169
:1020700020EE04F0CC51D926CD51DA226DC5DEF424
:102080006EC5DEF46FC5DEF470C5DEF4000E576E6B
:10209000000E586E000E596E460E5A6EECC501F5D4
:1020A000EDC502F5000E02BEFF0E036E046E010EBA
:1020B000CCECABF001C553F502C554F503C555F59D
:1020C00004C556F55DECA3F053C56DF554C56EF52A
:1020D00055C56FF556C570F5EDC671F5EEC672F5CE
:1020E000EFC673F5F0C674F5D5ECB5F0050120EE3A
:1020F00008F0CC51D926CD51DA226DC5DEF46EC57B
:10210000DEF46FC5DEF470C5DEF4E1C501F5E05123
:102110006BECB7F001C5EEF502C5EFF5000E576E9A
:10212000000E586EAA0E596E430E5A6EEEC501F59A
:10213000EFC502F5000E02BEFF0E036E046E010E27
:10214000CCECABF001C553F502C554F503C555F50C
:1021500004C556F55DECA3F053C51EF554C51FF537
:1021600055C520F556C521F5B80E226E1E0E236EFC
:10217000120E246E420E256E1BEC9BF0050120EE24
:1021800024F0CC51D926CD51DA221EC5DEF41FC56C
:10219000DEF420C5DEF421C5DEF4E3C501F5E2512D
:1021A0006BECB7F001C5F0F502C5F1F5E5C501F539
:1021B0000501E4516BECB7F001C5F2F502C5F3F58A
:1021C000E7C501F50501E6516BECB7F001C5F4F583
:1021D00002C5F5F5000E576E000E586E830E596E4F
:1021E000420E5A6EF0C501F5F1C502F5000E02BEB1
:1021F000FF0E036E046E010ECCECABF001C553F57F
:1022000002C554F503C555F504C556F55DECA3F0BC
:1022100053C56DF554C56EF555C56FF556C570F5CA
:10222000D9C671F5DAC672F5DBC673F5DCC674F58E
:10223000D5ECB5F0050120EE0CF0CC51D926CD51EE
:10224000DA226DC5DEF46EC5DEF46FC5DEF470C54E
:10225000DEF4000E576E000E586E830E596E420E5D
:102260005A6EF2C501F5F3C502F5000E02BEFF0E6F
:10227000036E046E010ECCECABF001C553F502C544
:1022800054F503C555F504C556F55DECA3F053C5EB
:102290006DF554C56EF555C56FF556C570F5DDC6BF
:1022A00071F5DEC672F5DFC673F5E0C674F5D5ECE0
:1022B000B5F0050120EE10F0CC51D926CD51DA222F
:1022C0006DC5DEF46EC5DEF46FC5DEF470C5DEF4F8
:1022D000000E576E000E586E830E596E420E5A6EE7
:1022E000F4C501F5F5C502F5000E02BEFF0E036E42
:1022F000046E010ECCECABF001C553F502C554F5EC
:1023000003C555F504C556F55DECA3F053C56DF551
:1023100054C56EF555C56FF556C570F5E1C671F536
:10232000E2C672F5E3C673F5E4C674F5D5ECB5F014
:10233000050120EE14F0CC51D926CD51DA226DC51D
:10234000DEF46EC5DEF46FC5DEF470C5DEF420EE9B
:1023500008F0CC51D926CD51DA22DEC409F5DEC40D
:102360000AF5DEC40BF5DEC40CF520EE08F0CC5106
:10237000D926CD51DA22DEC405F5DEC406F5DEC469
:1023800007F5DEC408F576EC9DF005C522F506C517
:1023900023F507C524F508C525F5CCC5D9F4CDC569
:1023A000DAF4DEC409F5DEC40AF5DEC40BF5DEC4DA
:1023B0000CF5CCC5D9F4CDC5DAF4DEC405F5DEC420
:1023C00006F5DEC407F5DEC408F576EC9DF005C51C
:1023D0001EF506C51FF507C520F508C521F51BEC40
:1023E0009BF01EC52EF51FC52FF520C530F521C564
:1023F00031F589EC9FF02EC5F6F52FC5F7F530C500
:10240000F8F531C5F9F5F6C5A7F5F7C5A8F5F8C58E
:10241000A9F5F9C5AAF5050120EE04F0CC51D9269D
:10242000CD51DA22DEC4A3F5DEC4A4F5DEC4A5F5E1
:10243000DEC4A6F540EC93F0A3C5CEF5A4C5CFF558
:10244000A5C5D0F5A6C5D1F5000E096E000E0A6E21
:10245000340E0B6E430E0C6ECEC505F5CFC506F5DA
:10246000D0C507F5D1C508F576EC9DF005C553F547
:1024700006C554F507C555F508C556F5DB0E576E6C
:102480000F0E586E490E596E400E5A6E5DECA3F059
:10249000050120EE20F0CC51D926CD51DA2253C5CA
:1024A000DEF454C5DEF455C5DEF456C5DEF420EE88
:1024B00008F0CC51D926CD51DA22DEC409F5DEC4AC
:1024C0000AF5DEC40BF5DEC40CF520EE08F0CC51A5
:1024D000D926CD51DA22DEC405F5DEC406F5DEC408
:1024E00007F5DEC408F576EC9DF005C522F506C5B6
:1024F00023F507C524F508C525F5050120EE04F0F0
:10250000CC51D926CD51DA22DEC409F5DEC40AF554
:10251000DEC40BF5DEC40CF520EE04F0CC51D92658
:10252000CD51DA22DEC405F5DEC406F5DEC407F5BA
:10253000DEC408F576EC9DF005C51EF506C51FF551
:1025400007C520F508C521F51BEC9BF01EC52EF52F
:102550001FC52FF520C530F521C531F589EC9FF059
:102560002EC5F6F52FC5F7F530C5F8F531C5F9F5E7
:10257000CCC5D9F4CDC5DAF4DEC401F5DEC402F56C
:10258000DEC403F5DEC404F557ECB6F001C5D2F5A0
:1025900002C5D3F503C5D4F504C5D5F5F6C5A7F531
:1025A000F7C5A8F5F8C5A9F5F9C5AAF5D2C5A3F5EB
:1025B000D3C5A4F5D4C5A5F5D5C5A6F540EC93F0D3
:1025C000A3C5D6F5A4C5D7F5A5C5D8F5A6C5D9F533
:1025D000000E096E000E0A6E340E0B6E430E0C6E6A
:1025E000D6C505F5D7C506F5D8C507F5D9C508F58B
:1025F00076EC9DF005C553F506C554F507C555F5B0
:1026000008C556F5DB0E576E0F0E586E490E596E03
:10261000400E5A6E5DECA3F0050120EE1CF0CC518B
:10262000D926CD51DA2253C5DEF454C5DEF455C5A2
:10263000DEF456C5DEF420EE18F0CC51D926CD518B
:10264000DA22000EDE6E000EDE6E000EDE6E000E72
:10265000DD6E8DECB7F0050120EE28F0CC51D926C7
:10266000CD51DA2201C5DEF402C5DDF420EE2AF0F8
:10267000CC51D926CD51DA22010EDF6E010E1200A7
:10268000A7C501F5A8C502F5A9C503F5AAC504F5B6
:102690002BECB1F001500210D8B451EF93F053EF8E
:1026A00093F066EF93F0A3C501F5A4C502F5A5C5A7
:1026B00003F5A6C504F52BECB1F001500210D8A427
:1026C00064EF93F066EF93F082EF93F0A7C51EF5E9
:1026D000A8C51FF5A9C520F5AAC521F5A3C522F5F2
:1026E000A4C523F5A5C524F5A6C525F51BEC9BF0CF
:1026F0001EC5A3F51FC5A4F520C5A5F521C5A6F5E2
:102700001EEF96F0A7C5C3F5A8C5C4F5A9C5C5F5C4
:10271000AAC5C6F5A3C5C7F5A4C5C8F5A5C5C9F51D
:10272000A6C5CAF5800E0501C51909E13F0EC619F7
:10273000C311C411D8A49FEF93F0A1EF93F0B5EFAC
:1027400093F0A3C575F5A4C576F5A5C577F5A6C51F
:1027500078F5DBEC8BF075C5A3F576C5A4F577C5E8
:10276000A5F578C5A6F51EEF96F0C3C5ABF5C4C5B3
:10277000ACF5C5C5ADF5C6C5AEF51F0EC5EF93F0FA
:10278000D890AE33AD33AC33AB33E82EC0EF93F01B
:10279000020EAB17C7C5AFF5C8C5B0F5C9C5B1F5D1
:1027A000CAC5B2F5200EDAEF93F0D890B233B13348
:1027B000B033AF33E82ED5EF93F0AF51010BAB112F
:1027C000CB6FC69FCA9FC751C811C911CA11D8A4DF
:1027D000ECEF93F0EEEF93F021EF94F00EEF94F026
:1027E000A3C5A3F5A4C5A4F5A5C5A5F5A6C5A6F5DD
:1027F0001EEF96F0DB0EA36F0F0EA46F490EA56FB0
:10280000400EA66F1EEF96F0DB0EA36F0F0EA46FA7
:10281000490EA56FC00EA66F1EEF96F0CB51000AB1
:10282000D8B4F0EF93F0010AD8B4F0EF93F0030AB4
:10283000D8B4FAEF93F0010AD8B404EF94F021EF82
:1028400094F0C351C411C511C611D8A42AEF94F055
:102850002CEF94F047EF94F0CBB131EF94F033EFDD
:1028600094F03DEF94F0DB0EA36F0F0EA46FC90E32
:10287000A56F3F0EA66F1EEF96F0DB0EA36F0F0E37
:10288000A46FC90EA56FBF0EA66F1EEF96F0800E47
:10289000C51909E17F0EC619C311C411D8A453EF9D
:1028A00094F055EF94F0DBEF94F0800EC91909E134
:1028B0007F0ECA19C711C811D8A461EF94F063EF55
:1028C00094F0C8EF94F08DEF94F0DB0EA36F0F0E31
:1028D000A46F490EA56F3F0EA66F1EEF96F0DB0E9C
:1028E000A36F0F0EA46F490EA56FBF0EA66F1EEF4C
:1028F00096F0E40EA36FCB0EA46F160EA56F400EDC
:10290000A66F1EEF96F0E40EA36FCB0EA46F160E0B
:10291000A56FC00EA66F1EEF96F0CB51000AD8B47B
:1029200065EF94F0010AD8B46FEF94F0030AD8B4BD
:1029300079EF94F0010AD8B483EF94F0DBEF94F0D0
:10294000000EA36F000EA46F000EA56F000EA66F01
:102950001EEF96F0000EA36F000EA46F000EA56F81
:10296000800EA66F1EEF96F0DB0EA36F0F0EA46F06
:10297000490EA56F400EA66F1EEF96F0DB0EA36FFB
:102980000F0EA46F490EA56FC00EA66F1EEF96F036
:10299000CB51000AD8B4A0EF94F0010AD8B4AAEF42
:1029A00094F0030AD8B4B4EF94F0010AD8B4BEEF9F
:1029B00094F0DBEF94F0000EC325AB6F000EC42142
:1029C000AC6F000EC521AD6F0D0EC621AE6FC751A5
:1029D000AB5DC851AC59C951AD59CA51AE59D8A017
:1029E000F4EF94F0F6EF94F004EF95F0800EC9192F
:1029F00009E17F0ECA19C711C811D8A402EF95F0DA
:102A000004EF95F01FEF95F0CBB109EF95F00BEFC8
:102A100095F015EF95F0DB0EA36F0F0EA46FC90EA6
:102A2000A56F3F0EA66F1EEF96F0DB0EA36F0F0E85
:102A3000A46FC90EA56FBF0EA66F1EEF96F0CBA3B5
:102A400024EF95F026EF95F04BEF95F0000EC7259B
:102A5000AB6F000EC821AC6F000EC921AD6F0D0E1B
:102A6000CA21AE6FC351AB5DC451AC59C551AD590C
:102A7000C651AE59D8B03FEF95F041EF95F04BEF0E
:102A800095F0000EBF6F000EC06F000EC16F000EFC
:102A9000C26F0EEF96F0A3C553F5A4C554F5A5C5B6
:102AA00055F5A6C556F5A7C557F5A8C558F5A9C546
:102AB00059F5AAC55AF55DECA3F053C56DF554C59B
:102AC0006EF555C56FF556C570F573ECB6F06DC56E
:102AD000B3F56EC5B4F56FC5B5F570C5B6F5B3C53C
:102AE00075F5B4C576F5B5C577F5B6C578F5DBEC03
:102AF0008BF075C5BFF576C5C0F577C5C1F578C54E
:102B0000C2F50EEF96F0BFC5A3F5C0C5A4F5C1C5CB
:102B1000A5F5C2C5A6F51EEF96F0BFC501F5C0C567
:102B200002F5C1C503F5C2C504F557ECB6F001C501
:102B3000A3F502C5A4F503C5A5F504C5A6F51EEFCA
:102B400096F02E0E226EBD0E236EBB0E246E330E3B
:102B5000256EBFC51EF5C0C51FF5C1C520F5C2C590
:102B600021F51BEC9BF01EC5B7F51FC5B8F520C5B8
:102B7000B9F521C5BAF5DB0E05016D6F0F0E6E6F4D
:102B8000490E6F6F400E706FB7C571F5B8C572F51D
:102B9000B9C573F5BAC574F5D5ECB5F06DC5A3F537
:102BA0006EC5A4F56FC5A5F570C5A6F51EEF96F028
:102BB0002E0E226EBD0E236EBB0E246E330E256EBE
:102BC000BFC51EF5C0C51FF5C1C520F5C2C521F59D
:102BD0001BEC9BF01EC5BBF51FC5BCF520C5BDF5A4
:102BE00021C5BEF5BBC51EF5BCC51FF5BDC520F58D
:102BF000BEC521F5DB0E226E0F0E236E490E246E2C
:102C0000C00E256E1BEC9BF01EC5A3F51FC5A4F5D9
:102C100020C5A5F521C5A6F51EEF96F00501CB51FF
:102C2000000AD8B483EF95F0010AD8B48DEF95F07F
:102C3000030AD8B4A1EF95F0D8EF95F0120096C52D
:102C4000ACF597C5ADF598C5AEF599C5AFF50501DD
:102C5000AFBF2DEF96F030EF96F0010E31EF96F00A
:102C6000000EA36FAF9FDB0EAC5D0F0EAD59490E8A
:102C7000AE593F0EAF59D8B040EF96F042EF96F004
:102C80006BEF96F0800EAE5D390EAF59D8B04BEFBA
:102C900096F04DEF96F057EF96F096C596F597C5DE
:102CA00097F598C598F599C599F5A5EF98F096C54B
:102CB00075F597C576F598C577F599C578F5A9ECBA
:102CC000A8F075C596F576C597F577C598F578C5DA
:102CD00099F5A5EF98F0D20EAC5D530EAD597B0E71
:102CE000AE59400EAF59D8B078EF96F07AEF96F023
:102CF0005DEF97F0E40EAC5DCB0EAD59160EAE59FC
:102D0000400EAF59D8B087EF96F089EF96F0F7EF05
:102D100096F0A351D8B48FEF96F091EF96F0C9EFEB
:102D200096F0DB0E226E0F0E236EC90E246E3F0E40
:102D3000256E96C51EF597C51FF598C520F599C552
:102D400021F51BEC9BF01EC5A4F51FC5A5F520C5FC
:102D5000A6F521C5A7F5A4C52EF5A5C52FF5A6C5D1
:102D600030F5A7C531F5CDECAAF02EC501F52FC57C
:102D700002F530C503F531C504F557ECB6F001C5D1
:102D800096F502C597F503C598F504C599F5A5EF25
:102D900098F096C51EF597C51FF598C520F599C5FD
:102DA00021F5DB0E226E0F0E236EC90E246EBF0EB0
:102DB000256E1BEC9BF01EC5A4F51FC5A5F520C50F
:102DC000A6F521C5A7F5A4C52EF5A5C52FF5A6C561
:102DD00030F5A7C531F5CDECAAF02EC596F52FC577
:102DE00097F530C598F531C599F5A5EF98F0A35141
:102DF000D8A4FDEF96F0FFEF96F025EF97F0DB0EED
:102E0000226E0F0E236E490E246EC00E256E96C5DF
:102E10001EF597C51FF598C520F599C521F51BEC42
:102E20009BF01EC501F51FC502F520C503F521C5A0
:102E300004F557ECB6F001C59AF502C59BF503C53C
:102E40009CF504C59DF549EF97F0DB0E226E0F0E41
:102E5000236E490E246E400E256E96C51EF597C54D
:102E60001FF598C520F599C521F51BEC9BF01EC5F3
:102E700001F51FC502F520C503F521C504F557EC82
:102E8000B6F001C59AF502C59BF503C59CF504C5CE
:102E90009DF59AC575F59BC576F59CC577F59DC5DD
:102EA00078F5A9ECA8F075C596F576C597F577C5C0
:102EB00098F578C599F5A5EF98F0D60EAC5D310E72
:102EC000AD59E20EAE59400EAF59D8B06AEF97F047
:102ED0006CEF97F00DEF98F0E00EAC5DED0EAD5994
:102EE000AF0EAE59400EAF59D8B079EF97F07BEFE7
:102EF00097F0BBEF97F0A351D8B481EF97F083EF31
:102F000097F09FEF97F096C51EF597C51FF598C5EA
:102F100020F599C521F5E40E226ECB0E236E960E98
:102F2000246E400E256E1BEC9BF01EC5A4F51FC53C
:102F3000A5F520C5A6F521C5A7F5E3EF96F0E40EAB
:102F4000226ECB0E236E960E246EC00E256E96C595
:102F50001EF597C51FF598C520F599C521F51BEC01
:102F60009BF01EC5A4F51FC5A5F520C5A6F521C576
:102F7000A7F5ABEF96F0A351D8A4C1EF97F0C3EF3C
:102F800097F0DFEF97F096C51EF597C51FF598C52A
:102F900020F599C521F5DB0E226E0F0E236EC90EAA
:102FA000246EC00E256E1BEC9BF01EC59EF51FC542
:102FB0009FF520C5A0F521C5A1F5F9EF97F096C5BD
:102FC0001EF597C51FF598C520F599C521F5DB0EAF
:102FD000226E0F0E236EC90E246E400E256E1BEC62
:102FE0009BF01EC59EF51FC59FF520C5A0F521C508
:102FF000A1F59EC575F59FC576F5A0C577F5A1C568
:1030000078F5A9ECA8F075C596F576C597F577C55E
:1030100098F578C599F5A5EF98F0800EAE5D7F0E16
:10302000AF59D8A016EF98F018EF98F02AEF98F063
:10303000FF0EAC13FF0EAD13FF0EAE13000EAF1359
:10304000ACC596F5ADC597F5AEC598F5AFC599F584
:10305000A5EF98F096C575F597C576F598C577F5FF
:1030600099C578F5A80E796F050E7A6F78ECA1F006
:1030700005017551030BA26F96EF98F0A8C501F5F5
:10308000A9C502F5AAC503F5ABC504F557ECB6F022
:1030900001C5A8F502C5A9F503C5AAF504C5ABF598
:1030A000A8C575F5A9C576F5AAC577F5ABC578F5B8
:1030B000A9ECA8F075C596F576C597F577C598F58E
:1030C00078C599F5A5EF98F0A8C52EF5A9C52FF5F7
:1030D000AAC530F5ABC531F5CDECAAF02EC596F5F5
:1030E0002FC597F530C598F531C599F5A5EF98F03E
:1030F000A8C52EF5A9C52FF5AAC530F5ABC531F584
:10310000CDECAAF02EC501F52FC502F530C503F5AB
:1031100031C504F557ECB6F001C596F502C597F533
:1031200003C598F504C599F5A5EF98F0A251000ADA
:10313000D8B450EF98F0010AD8B464EF98F0030ABD
:10314000D8B43EEF98F078EF98F0120096C5ACF541
:1031500097C5ADF598C5AEF599C5AFF50501AFBFFB
:10316000B4EF98F0B7EF98F0010EB8EF98F0000EBA
:10317000A76FAF9FDB0EAC5D0F0EAD59490EAE5978
:103180003F0EAF59D8B0C7EF98F0C9EF98F0F2EF03
:1031900098F0800EAE5D390EAF59D8B0D2EF98F0EE
:1031A000D4EF98F0DEEF98F0000E966F000E976F58
:1031B000800E986F3F0E996F1AEF9BF096C52EF513
:1031C00097C52FF598C530F599C531F5CDECAAF026
:1031D0002EC596F52FC597F530C598F531C599F5EB
:1031E0001AEF9BF0D20EAC5D530EAD597B0EAE596B
:1031F000400EAF59D8B0FFEF98F001EF99F0C8EF4B
:1032000099F0E40EAC5DCB0EAD59160EAE59400EE2
:10321000AF59D8A00EEF99F010EF99F06CEF99F03C
:10322000A751D8A416EF99F018EF99F034EF99F060
:1032300096C51EF597C51FF598C520F599C521F5CA
:10324000DB0E226E0F0E236E490E246EC00E256E0D
:103250001BEC9BF01EC59AF51FC59BF520C59CF580
:1032600021C59DF54EEF99F096C51EF597C51FF542
:1032700098C520F599C521F5DB0E226E0F0E236E41
:10328000490E246E400E256E1BEC9BF01EC59AF570
:103290001FC59BF520C59CF521C59DF59AC52EF54A
:1032A0009BC52FF59CC530F59DC531F5CDECAAF039
:1032B0002EC501F52FC502F530C503F531C504F55E
:1032C00057ECB6F001C596F502C597F503C598F51C
:1032D00004C599F51AEF9BF0A751D8B472EF99F095
:1032E00074EF99F0A2EF99F096C51EF597C51FF5FA
:1032F00098C520F599C521F5DB0E226E0F0E236EC1
:10330000C90E246E3F0E256E1BEC9BF01EC5A3F567
:103310001FC5A4F520C5A5F521C5A6F5A3C575F55E
:10332000A4C576F5A5C577F5A6C578F5A9ECA8F0EE
:1033300075C596F576C597F577C598F578C599F56D
:103340001AEF9BF0DB0E6D6F0F0E6E6FC90E6F6F75
:103350003F0E706F96C571F597C572F598C573F5F8
:1033600099C574F5D5ECB5F06DC575F56EC576F5F6
:103370006FC577F570C578F5A9ECA8F075C596F519
:1033800076C597F577C598F578C599F51AEF9BF04E
:10339000D60EAC5D310EAD59E20EAE59400EAF59AE
:1033A000D8B0D5EF99F0D7EF99F082EF9AF0E00E10
:1033B000AC5DED0EAD59AF0EAE59400EAF59D8A071
:1033C000E4EF99F0E6EF99F038EF9AF0A751D8A41E
:1033D000ECEF99F0EEEF99F00AEF9AF096C51EF532
:1033E00097C51FF598C520F599C521F5DB0E226E0E
:1033F0000F0E236EC90E246EC00E256E1BEC9BF0C3
:103400001EC59EF51FC59FF520C5A0F521C5A1F5D8
:1034100024EF9AF096C51EF597C51FF598C520F5BF
:1034200099C521F5DB0E226E0F0E236EC90E246E98
:10343000400E256E1BEC9BF01EC59EF51FC59FF52B
:1034400020C5A0F521C5A1F59EC52EF59FC52FF578
:10345000A0C530F5A1C531F5CDECAAF02EC596F585
:103460002FC597F530C598F531C599F51AEF9BF042
:10347000A751D8B43EEF9AF040EF9AF066EF9AF079
:10348000E40E6D6FCB0E6E6F960E6F6FC00E706F89
:1034900096C571F597C572F598C573F599C574F51C
:1034A000D5ECB5F06DC575F56EC576F56FC577F5DC
:1034B00070C578F5A9ECA8F075C596F576C597F5B1
:1034C00077C598F578C599F51AEF9BF096C51EF566
:1034D00097C51FF598C520F599C521F5E40E226E14
:1034E000CB0E236E960E246EC00E256E1BEC9BF049
:1034F0001EC5A3F51FC5A4F520C5A5F521C5A6F5D4
:103500008EEF99F0800EAE5D7F0EAF59D8A08BEF95
:103510009AF08DEF9AF09FEF9AF0FF0EAC6FFF0ECE
:10352000AD6FFF0EAE6F7F0EAF6FACC596F5ADC53C
:1035300097F5AEC598F5AFC599F51AEF9BF096C50E
:1035400075F597C576F598C577F599C578F5A80E00
:10355000796F050E7A6F78ECA1F005017551030BB8
:10356000A26F0BEF9BF0A8C52EF5A9C52FF5AAC534
:1035700030F5ABC531F5CDECAAF02EC596F52FC5CB
:1035800097F530C598F531C599F51AEF9BF0A8C5A8
:103590002EF5A9C52FF5AAC530F5ABC531F5CDEC93
:1035A000AAF02EC501F52FC502F530C503F531C5CA
:1035B00004F557ECB6F001C596F502C597F503C5BD
:1035C00098F504C599F51AEF9BF0A8C501F5A9C5B2
:1035D00002F5AAC503F5ABC504F557ECB6F001C575
:1035E000A8F502C5A9F503C5AAF504C5ABF5A8C59C
:1035F00075F5A9C576F5AAC577F5ABC578F5A9EC3B
:10360000A8F075C596F576C597F577C598F578C590
:1036100099F51AEF9BF0A251000AD8B4B3EF9AF0D3
:10362000010AD8B4E5EF9AF0030AD8B4C7EF9AF0CC
:10363000F7EF9AF012002150800B2A6E21502124BE
:103640002C6E20AE26EF9BF028EF9BF029EF9BF02D
:103650002C802C50D8B42FEF9BF031EF9BF045EF2E
:103660009BF02C28D8A437EF9BF039EF9BF041EF6B
:103670009BF0000E1E6E000E1F6E000E206E000EE0
:10368000216E208E216A4DEF9BF0000E1E6E000E03
:103690001F6E000E206E000E216E2550800B2B6ECB
:1036A0002A502B18D8B457EF9BF059EF9BF05AEFE4
:1036B0009BF02A8C255025242B6E24AE62EF9BF0C4
:1036C00064EF9BF065EF9BF02B802B50D8B46BEF31
:1036D0009BF06DEF9BF081EF9BF02B28D8A473EF4C
:1036E0009BF075EF9BF07DEF9BF0000E226E000EBD
:1036F000236E000E246E000E256E248E256A89EF3F
:103700009BF0000E226E000E236E000E246E000E43
:10371000256E2C502B5CD8B090EF9BF092EF9BF075
:10372000B9EF9BF02AAC97EF9BF099EF9BF09BEFE2
:103730009BF0800E2A1A2CC52DF52BC52CF52DC516
:103740002BF51EC52DF522C51EF52DC522F51FC56D
:103750002DF523C51FF52DC523F520C52DF524C551
:1037600020F52DC524F521C52DF525C521F52DC53F
:1037700025F52D6A2C502BC526F5276A265E000EEE
:10378000275A27BECDEF9BF0275009E11A0E265C81
:10379000D8A0CDEF9BF0CFEF9BF006EF9CF01E5032
:1037A0001F1020102110D8A4D8EF9BF0DBEF9BF066
:1037B000010EDCEF9BF0000E2D6E000E1E6E000E53
:1037C0001F6E000E206E000E216E2BC52CF50FEF24
:1037D0009CF02DA0EEEF9BF0F0EF9BF0F6EF9BF04E
:1037E000D8902D3001092D6EF8EF9BF0D8902D3236
:1037F0001EA0FDEF9BF0FFEF9BF000EF9CF02D8EE5
:103800002134213220321F321E322C2A2B502C5CC4
:10381000D8A00DEF9CF00FEF9CF0E9EF9BF02ABCD5
:1038200014EF9CF016EF9CF056EF9CF02C50D8A4AF
:103830001CEF9CF01EEF9CF028EF9CF0000E1E6E1B
:10384000000E1F6E000E206E000E216E75EF9DF0B3
:1038500022501E2623501F22245020222550212290
:1038600021A035EF9CF037EF9CF0E3EF9CF02DA00A
:103870003CEF9CF03EEF9CF044EF9CF0D8902D3054
:1038800001092D6E46EF9CF0D8902D321EA04BEF13
:103890009CF04DEF9CF04EEF9CF02D8E21342132A8
:1038A00020321F321E322C2AE3EF9CF022501E5C85
:1038B00023501F58245020582150800A266E25502E
:1038C000800A2658D8B067EF9CF069EF9CF094EF1F
:1038D0009CF01E50225C266E1F502358276E2050ED
:1038E0002458286E21502558296EFF0E26241E6E5E
:1038F000FF0E27201F6EFF0E2820206EFF0E2920AE
:10390000216E800E2A1A2D6C2D50D8A48AEF9CF0BF
:103910008CEF9CF09CEF9CF0010E1E26000E1F22E7
:10392000202221229CEF9CF022501E5E23501F5A21
:103930002450205A2550215A1E501F1020102110AB
:10394000D8A4A5EF9CF0A7EF9CF0DCEF9CF02D50E5
:10395000D8A4ADEF9CF0AFEF9CF0DCEF9CF0000E34
:103960001E6E000E1F6E000E206E000E216E75EF93
:103970009DF0D8901E361F36203621362DAEC3EF6F
:103980009CF0C5EF9CF0C6EF9CF01E802DA0CBEF05
:103990009CF0CDEF9CF0D1EF9CF0D8802D36D3EF8A
:1039A0009CF0D8902D362C50D8B4D9EF9CF0DBEF9A
:1039B0009CF0DCEF9CF02C0620AEE1EF9CF0E3EFF6
:1039C0009CF0B9EF9CF02B6A2DAEE9EF9CF0EBEF89
:1039D0009CF003EF9DF02DC526F57F0E2616D8B47A
:1039E000F4EF9CF0F6EF9CF0FAEF9CF0010E2B6EDA
:1039F00003EF9DF01EA0FFEF9CF001EF9DF003EFA1
:103A00009DF0F6EF9CF02B50D8B409EF9DF00BEF32
:103A10009DF036EF9DF0010E1E26000E1F22202283
:103A2000212221A016EF9DF018EF9DF036EF9DF0BA
:103A30001EC526F51FC527F520C528F521C529F582
:103A40002934293228322732263226C51EF527C5C9
:103A50001FF528C520F529C521F52C28D8B433EF4A
:103A60009DF035EF9DF036EF9DF02C2A2C28D8B430
:103A70003CEF9DF03EEF9DF046EF9DF02C50D8A41A
:103A800044EF9DF046EF9DF057EF9DF0000E1E6E47
:103A9000000E1F6E000E206E000E216E2C50D8A45A
:103AA00054EF9DF056EF9DF057EF9DF02A6A2CA041
:103AB0005CEF9DF05EEF9DF061EF9DF0208E62EF78
:103AC0009DF0209ED8902C30216E2AAE6AEF9DF09A
:103AD0006CEF9DF06DEF9DF0218E1EC51EF51FC58C
:103AE0001FF520C520F521C521F512000850800BD7
:103AF000116E08500824176E07AE81EF9DF083EF1A
:103B00009DF084EF9DF017801750D8B48AEF9DF098
:103B10008CEF9DF09FEF9DF01728D8A492EF9DF0B9
:103B200094EF9DF09CEF9DF0000E056E000E066E6A
:103B3000000E076E000E086E078EA7EF9DF0000EB8
:103B4000056E000E066E000E076E000E086E0C501D
:103B5000800B111A0C500C24166E0BAEB2EF9DF0B8
:103B6000B4EF9DF0B5EF9DF016801650D8B4BBEFC2
:103B70009DF0BDEF9DF0D0EF9DF01628D8A4C3EFC7
:103B80009DF0C5EF9DF0CDEF9DF0000E096E000E8B
:103B90000A6E000E0B6E000E0C6E0B8ED8EF9DF0B1
:103BA000000E096E000E0A6E000E0B6E000E0C6EFB
:103BB0001650D8B4DEEF9DF0E0EF9DF0E8EF9DF0F9
:103BC0001750D8A4E6EF9DF0E8EF9DF0F2EF9DF0DE
:103BD000000E056E000E066E000E076E000E086EDB
:103BE00088EF9FF00B500502F3C41CF5F4C41DF5DB
:103BF0001C50126E136A146A156A1D50186E196AE9
:103C00001A6A1B6A0A500602F3C41CF5F4C41DF5B7
:103C10001C501226000E1322142215221D501826A5
:103C2000000E19221A221B2209500702F3C41CF5A8
:103C3000F4C41DF51C501226000E13221422152266
:103C40001D501826000E19221A221B2214C515F524
:103C500013C514F512C513F5126A09500602F3C410
:103C60001CF5F4C41DF51C5012261D501322000E25
:103C70001422000E15220A500502F3C41CF5F4C4E8
:103C80001DF51C5012261D501322000E1422000E8A
:103C9000152214C515F513C514F512C513F5126ACE
:103CA00009500502F3C41CF5F4C41DF51C5012267E
:103CB0001D501322000E1422000E15220B50060276
:103CC000F3C41CF5F4C41DF51C5018261D50192210
:103CD000000E1A22000E1B220A500702F3C41CF524
:103CE000F4C41DF51C5018261D501922000E1A226E
:103CF000000E1B220B500702F3C41CF5F4C41DF583
:103D00001C500D6E1D500E6E0F6A106A0FC510F517
:103D10000EC50FF50DC50EF50D6A0D5018260E5087
:103D200019220F501A2210501B2212C50DF513C56F
:103D30000EF514C50FF515C510F5190EA5EF9EF07B
:103D4000D89010320F320E320D32E82EA0EF9EF0D6
:103D50000D5018260E5019220F501A2210501B22F7
:103D600014C515F513C514F512C513F5126A1650CE
:103D700017C50DF50E6A0D26000E0E22820E0D24BB
:103D80001C6EFF0E0E201D6EDBEF9EF0D8901836D5
:103D900019361A361B3615AED0EF9EF0D2EF9EF0D4
:103DA000D3EF9EF01880D89012361336143615369D
:103DB0001C06D8A01D061AAEE0EF9EF0E2EF9EF0C2
:103DC000C6EF9EF0166A15AEE8EF9EF0EAEF9EF0A1
:103DD0000EEF9FF0FF0E12140D6EFF0E13140E6EF9
:103DE000FF0E14140F6E7F0E1514106E0D500E1072
:103DF0000F101010D8B4FFEF9EF001EF9FF005EF09
:103E00009FF0010E166E0EEF9FF018A00AEF9FF0C4
:103E10000CEF9FF00EEF9FF001EF9FF01650D8B41B
:103E200014EF9FF016EF9FF03AEF9FF0010E182667
:103E3000000E19221A221B221BA021EF9FF023EF54
:103E40009FF03AEF9FF018C50DF519C50EF51AC58C
:103E50000FF51BC510F5103410320F320E320D3233
:103E60000DC518F50EC519F50FC51AF510C51BF5CA
:103E70001C4A1D2A1DBE45EF9FF01D5008E11C285D
:103E8000D8A045EF9FF047EF9FF051EF9FF0000E55
:103E9000186E000E196E800E1A6E7F0E1B6E7EEF6E
:103EA0009FF01DBE5EEF9FF01D5006E11C04D8B0D0
:103EB0005CEF9FF05EEF9FF069EF9FF0000E186ED1
:103EC000000E196E000E1A6E000E1B6E116A7EEF48
:103ED0009FF01CC517F5FF0E1816FF0E19167F0E62
:103EE0001A16000E1B1617A078EF9FF07AEF9FF0BE
:103EF0007BEF9FF01A8ED89017301B6E11501B125B
:103F000018C505F519C506F51AC507F51BC508F549
:103F100012002EC54FF52FC550F530C551F531C5EE
:103F200052F5000E4F14326E000E5014336E800E98
:103F30005114346E7F0E5214356E800E341809E120
:103F40007F0E351832103310D8A4A9EF9FF0ABEFD5
:103F50009FF0DBEF9FF0FF0E4F14326EFF0E5014F8
:103F6000336E7F0E5114346E000E5214356E325083
:103F7000331034103510D8A4C0EF9FF0C2EF9FF07B
:103F8000C9EF9FF052BEC9EF9FF0C7EF9FF0D1EF8E
:103F90009FF0FF0E4F12FF0E50127F0E5112000EB7
:103FA00052124FC52EF550C52FF551C530F552C5EB
:103FB00031F577EFA1F052BEEAEF9FF05250511069
:103FC000501006E14F04D8B0E8EF9FF0EAEF9FF001
:103FD00021EFA0F0FF0E4F14326EFF0E5014336E1F
:103FE000FF0E5114346E7F0E5214356E3250331062
:103FF00034103510D8A4FFEF9FF001EFA0F00BEFC5
:10400000A0F0000E2E6E000E2F6E000E306E000E11
:10401000316E77EFA1F052BE12EFA0F010EFA0F0DA
:1040200021EFA0F0000E0701116F210E106FFF0E9F
:104030004F6EFF0E506EFF0E516E7F0E526ED1EF1F
:104040009FF0170E326E4FC533F550C534F551C58C
:1040500035F552C536F5326630EFA0F038EFA0F0F6
:1040600036343632353234323332322E2BEFA0F042
:1040700033C547F534C548F535C549F536C54AF564
:104080004750481049104A10D8A449EFA0F04BEF10
:10409000A0F07BEFA0F0000E3B6E000E3C6E000E19
:1040A0003D6E000E3E6E60EFA0F0D8904F36503659
:1040B00051365236010E3B26000E3C223D223E2256
:1040C00051AE65EFA0F067EFA0F055EFA0F0FF0E46
:1040D0003B24326EFF0E3C20336EFF0E3D20346ECB
:1040E000FF0E3E20356E3250475E3350485A3450F2
:1040F000495A35504A5A810E4726FF0E4822FF0E74
:104100004922FF0E4A22FF0E4F14326EFF0E50144A
:10411000336E7F0E5114346E000E5214356E000E45
:1041200032104F6E000E3310506E800E3410516EF0
:10413000000E3510526E47A0A0EFA0F0A2EFA0F045
:10414000AAEFA0F04F504F2650505022515051220C
:10415000525052224A344A324932483247324F5042
:104160004F26505050225150512252505222000E90
:10417000376E000E386E000E396E000E3A6E37C57F
:104180003FF538C540F539C541F53AC542F5000E51
:104190004B6E000E4C6E000E4D6E010E4E6E19EF02
:1041A000A1F037504B24436E38504C20446E3950A8
:1041B0004D20456E3A504E20466E43504F5C445061
:1041C0005058455051585250800A326E4650800A1D
:1041D0003258D8A0EEEFA0F0F0EFA0F00CEFA1F075
:1041E00043504B24376E44504C20386E45504D2080
:1041F000396E46504E203A6E43504F5E4450505AEE
:104200004550515A4650525A4B503F264C5040222E
:104210004D5041224E5042224F504F265050502276
:104220005150512252505222D8904E324D324C327F
:104230004B324B504C104D104E10D8A422EFA1F031
:1042400024EFA1F0D1EFA0F04F50501051105210B8
:10425000D8B42DEFA1F02FEFA1F043EFA1F0010EA4
:104260003F14326E000E4014336E000E4114346E53
:10427000000E4214356E32503F26335040223450E7
:104280004122355042223FC532F540C533F541C584
:1042900034F542C535F535343532343233323232C5
:1042A000000E32244F6E000E3320506E000E34206C
:1042B000516E3F0E3520526E47C532F548C533F575
:1042C00049C534F54AC535F5170ED8903236333620
:1042D00034363536E82E65EFA1F032504F26335094
:1042E00050223450512235505222D1EF9FF012000B
:1042F00008C786F509C787F50AC788F50BC789F58A
:1043000075C586F576C587F577C588F578C589F5CD
:10431000050189BF8EEFA1F091EFA1F0010E92EFA0
:10432000A1F0000E856F899FDB0E865D0F0E875909
:10433000C90E88594D0E8959D8B0A1EFA1F0A3EF4D
:10434000A1F092EFA2F075C56DF576C56EF577C553
:104350006FF578C570F573ECB6F06DC58EF56EC56A
:104360008FF56FC590F570C591F5000E226E000EA9
:10437000236E000E246E3F0E256E830E096EF90E1D
:104380000A6E220E0B6E3F0E0C6E8EC505F58FC5A4
:1043900006F590C507F591C508F576EC9DF005C5C5
:1043A0001EF506C51FF507C520F508C521F51BEC50
:1043B0009BF01EC52EF51FC52FF520C530F521C574
:1043C00031F5A4ECAFF02EC592F52FC593F530C5AD
:1043D00094F531C595F592C501F593C502F594C5DF
:1043E00003F595C504F5010ECCECABF001C58AF5DB
:1043F00002C58BF503C58CF504C58DF5DA0E096E83
:104400000F0E0A6EC90E0B6E3F0E0C6E8AC505F5B7
:104410008BC506F58CC507F58DC508F576EC9DF0C6
:1044200005C571F506C572F507C573F508C574F5C0
:104430008EC56DF58FC56EF590C56FF591C570F59C
:10444000D5ECB5F06DC581F56EC582F56FC583F508
:1044500070C584F581C56DF582C56EF583C56FF5B0
:1044600084C570F5A30E096E850E0A6E880E0B6E5C
:10447000320E0C6E8AC505F58BC506F58CC507F5A1
:104480008DC508F576EC9DF005C571F506C572F58C
:1044900007C573F508C574F5D5ECB5F079C5D9F441
:1044A0007AC5DAF405016DC5DEF46EC5DEF46FC5BC
:1044B000DEF470C5DEF48551D8B461EFA2F063EF8D
:1044C000A2F08CEFA2F079C5D9F47AC5DAF4DEC493
:1044D00001F5DEC402F5DEC403F5DEC404F557ECD5
:1044E000B6F079C5D9F47AC5DAF401C5DEF402C5AF
:1044F000DEF403C5DEF404C5DEF492C57BF593C596
:104500007CF505017B1F7C1F7B4B7C2B7BC575F5E8
:104510007CC576F55CEFA3F092C575F593C576F58D
:104520005CEFA3F075C56DF576C56EF577C56FF5D3
:1045300078C570F573ECB6F06DC58EF56EC58FF568
:104540006FC590F570C591F5000E226E000E236EBA
:10455000000E246E3F0E256E830E096EF90E0A6E54
:10456000220E0B6E3F0E0C6E8EC505F58FC506F53F
:1045700090C507F591C508F576EC9DF005C51EF5CB
:1045800006C51FF507C520F508C521F51BEC9BF0F6
:104590001EC52EF51FC52FF520C530F521C531F5F7
:1045A000A4ECAFF02EC592F52FC593F530C594F568
:1045B00031C595F592C501F593C502F594C503F58E
:1045C00095C504F5010ECCECABF001C58AF502C52A
:1045D0008BF503C58CF504C58DF5DA0E096E0F0E4B
:1045E0000A6EC90E0B6E3F0E0C6E8AC505F58BC5A3
:1045F00006F58CC507F58DC508F576EC9DF005C56B
:1046000071F506C572F507C573F508C574F58EC555
:104610006DF58FC56EF590C56FF591C570F5D5EC4C
:10462000B5F06DC581F56EC582F56FC583F570C5B2
:1046300084F581C56DF582C56EF583C56FF584C5BA
:1046400070F5A30E096E850E0A6E880E0B6E320E83
:104650000C6E8AC505F58BC506F58CC507F58DC5AD
:1046600008F576EC9DF005C571F506C572F507C530
:1046700073F508C574F5D5ECB5F06DC57DF56EC55F
:104680007EF56FC57FF570C580F579C5D9F47AC51B
:10469000DAF47DC5DEF47EC5DEF47FC5DEF480C5C8
:1046A000DEF405018551D8B458EFA3F05AEFA3F01A
:1046B0008CEFA2F063EFA2F012005650800B0501C0
:1046C000646F565056246B6F55AE69EFA3F06BEFD5
:1046D000A3F06CEFA3F06B816B51D8B472EFA3F031
:1046E00074EFA3F088EFA3F06B29D8A47AEFA3F0BE
:1046F0007CEFA3F084EFA3F0000E536E000E546E17
:10470000000E556E000E566E558E566A90EFA3F051
:10471000000E536E000E546E000E556E000E566E57
:104720005A50800B641B5A505A246C6F59AE9BEF41
:10473000A3F09DEFA3F09EEFA3F06C816C51D8B471
:10474000A4EFA3F0A6EFA3F0BAEFA3F06C29D8A4CE
:10475000ACEFA3F0AEEFA3F0B6EFA3F0000E576EF0
:10476000000E586E000E596E000E5A6E598E5A6A1F
:10477000C2EFA3F0000E576E000E586E000E596E79
:10478000000E5A6E5750581059105A10D8A4CBEF3B
:10479000A3F0CDEFA3F0E5EFA3F0000E536E000EF3
:1047A000546E000E556E000E566E800E55127F0E22
:1047B00056126451561253C553F554C554F555C598
:1047C00055F556C556F525EFA5F06B51D8A4EBEF7E
:1047D000A3F0EDEFA3F0F7EFA3F0000E536E000E81
:1047E000546E000E556E000E566E25EFA5F06C51FE
:1047F0006BC55BF55C6A5B5E000E5C5A7F0E5B24EA
:10480000656F000E5C20666F53C560F554C561F599
:1048100055C562F556C563F5000E536E000E546E15
:10482000000E556E000E566E000E676F000E686F1C
:10483000000E696F000E6A6F6C6B57EFA4F06C513D
:10484000D8B425EFA4F027EFA4F03EEFA4F0D89061
:104850006037613762376337D890533654365536F0
:1048600056366AAF36EFA4F038EFA4F039EFA4F073
:104870005380D8906737683769376A375750605D1B
:1048800058506159595062595A506359D8A04BEF4A
:10489000A4F04DEFA4F056EFA4F06A8D5750605F7E
:1048A0005850615B5950625B5A50635B6C2B190E18
:1048B0006C655DEFA4F05FEFA4F01FEFA4F0605112
:1048C000611162116311D8B468EFA4F06AEFA4F02B
:1048D00082EFA4F0678182EFA4F0D890533654366B
:1048E000553656366AAF77EFA4F079EFA4F07AEF39
:1048F000A4F05380D8906737683769376A376507FF
:10490000D8A0660755AE87EFA4F089EFA4F06DEF4D
:10491000A4F06C6B6AAF8FEFA4F091EFA4F0B5EF49
:10492000A4F0FF0E67155B6EFF0E68155C6EFF0E40
:1049300069155D6E7F0E6A155E6E5B505C105D10D2
:104940005E10D8B4A6EFA4F0A8EFA4F0ACEFA4F0EA
:10495000010E6C6FB5EFA4F053A0B1EFA4F0B3EF6C
:10496000A4F0B5EFA4F0A8EFA4F06C51D8B4BBEF5D
:10497000A4F0BDEFA4F0E1EFA4F0010E5326000E69
:1049800054225522562256A0C8EFA4F0CAEFA4F034
:10499000E1EFA4F053C55BF554C55CF555C55DF575
:1049A00056C55EF55E345E325D325C325B325BC5AD
:1049B00053F55CC554F55DC555F55EC556F5654BBB
:1049C000662B66BFECEFA4F0665108E16529D8A01C
:1049D000ECEFA4F0EEEFA4F0F9EFA4F0000E666F98
:1049E0006569000E536E000E546E000E556E000E7B
:1049F000566E66BF06EFA5F0665106E16505D8B0B4
:104A000004EFA5F006EFA5F013EFA5F0000E666F1A
:104A1000000E656F000E536E000E546E000E556E44
:104A2000000E566E646B65C56BF56BA11AEFA5F0B1
:104A30001CEFA5F01FEFA5F0558E20EFA5F0559EB9
:104A4000D8906B31566ED9EFA3F01200036E056A51
:104A500003AE2DEFA5F02FEFA5F032EFA5F0C78440
:104A600047EFA5F0C794BF9447EFA5F01A0EE82EC4
:104A7000FED700D060EFA5F02A0EE82EFED700D0BA
:104A800060EFA5F0400EE82EFED760EFA5F05F5076
:104A9000016E026A0250000AD8B451EFA5F03CEF53
:104AA000A5F00150000AD8B436EFA5F0010AD8B439
:104AB0003CEFA5F0030AD8B442EFA5F03CEFA5F017
:104AC000C78274EFA5F01A0EE82EFED700D08DEF46
:104AD000A5F02A0EE82EFED700D08DEFA5F0400EEF
:104AE000E82EFED78DEFA5F05F50016E026A0250EE
:104AF000000AD8B47EEFA5F069EFA5F00150000AD6
:104B0000D8B463EFA5F0010AD8B469EFA5F0030AA1
:104B1000D8B46FEFA5F069EFA5F0C792BF92A2EFEE
:104B2000A5F01A0EE82EFED700D0BBEFA5F02A0E96
:104B3000E82EFED700D0BBEFA5F0400EE82EFED742
:104B4000BBEFA5F05F50016E026A0250000AD8B4B4
:104B5000ACEFA5F097EFA5F00150000AD8B491EFA3
:104B6000A5F0010AD8B497EFA5F0030AD8B49DEFD9
:104B7000A5F097EFA5F0D8900336052A070E056437
:104B8000C4EFA5F0C6EFA5F028EFA5F0C784DAEFD3
:104B9000A5F01A0EE82EFED700D0F3EFA5F02A0EEE
:104BA000E82EFED700D0F3EFA5F0400EE82EFED79A
:104BB000F3EFA5F05F50016E026A0250000AD8B40C
:104BC000E4EFA5F0CFEFA5F00150000AD8B4C9EF8B
:104BD000A5F0010AD8B4CFEFA5F0030AD8B4D5EFF9
:104BE000A5F0CFEFA5F0C78207EFA6F01A0EE82ECA
:104BF000FED700D020EFA6F02A0EE82EFED700D078
:104C000020EFA6F0400EE82EFED720EFA6F05F5072
:104C1000016E026A0250000AD8B411EFA6F0FCEF50
:104C2000A5F00150000AD8B4F6EFA5F0010AD8B4F7
:104C3000FCEFA5F0030AD8B402EFA6F0FCEFA5F054
:104C4000000ECFB4010E046EC792BF9239EFA6F0EA
:104C50001A0EE82EFED700D052EFA6F02A0EE82E4C
:104C6000FED700D052EFA6F0400EE82EFED752EF4E
:104C7000A6F05F50016E026A0250000AD8B443EFFA
:104C8000A6F02EEFA6F00150000AD8B428EFA6F047
:104C9000010AD8B42EEFA6F0030AD8B434EFA6F078
:104CA0002EEFA6F00450D8A458EFA6F05BEFA6F0C4
:104CB000010E5CEFA6F0000E120041ECB7F008EC1C
:104CC000B7F04FECB7F078ECB7F0D90E046EFF0EEA
:104CD000056E060E066EADECB5F0520E06018A6F3B
:104CE0002B0E896F000EE82EFED7892FFCD78A2F56
:104CF000FAD70000A0ECB7F0A30E0501FA6F060E7C
:104D0000FB6F000EFC6F000EFD6F00EC80F0A7C67D
:104D100001F5A8C602F5A9C603F5AAC604F557EC25
:104D2000B6F001C59BF602C59CF603C59DF604C509
:104D30009EF6ABC69FF6ACC6A0F6ADC6A1F6AEC653
:104D4000A2F69BC66DF59CC66EF59DC66FF59EC618
:104D500070F573ECB6F09FC66DF5A0C66EF5A1C6F2
:104D60006FF5A2C670F573ECB6F08B0E0501CD6F32
:104D7000060ECE6F740ECF6FFF0ED06F9BC6D1F5AF
:104D80009CC6D2F59DC6D3F59EC6D4F59FC6D5F573
:104D9000A0C6D6F5A1C6D7F5A2C6D8F55DECB5F08C
:104DA000010E046E010ED3ECB3F08B0E046E060EF2
:104DB000056E100E066EADECB5F0000E046E020E20
:104DC000D3ECB3F0000E1E6E000E1F6E0C0E206EA4
:104DD000420E216E9FC622F5A0C623F5A1C624F57A
:104DE000A2C625F527ECB0F0D8B0F9EFA6F0FBEF9E
:104DF000A6F005EFA7F0E00E046EFF0E056E0A0E9A
:104E0000066EADECB5F076EFA7F09FC61EF5A0C616
:104E10001FF5A1C620F5A2C621F5000E226E000ED8
:104E2000236E200E246EC10E256E27ECB0F0D8B094
:104E30001CEFA7F01EEFA7F028EFA7F0FA0E046E04
:104E4000FF0E056E0A0E066EADECB5F076EFA7F01C
:104E5000000E1E6E000E1F6E920E206E420E216E10
:104E60009BC622F59CC623F59DC624F59EC625F556
:104E700027ECB0F0D8B03FEFA7F041EFA7F04BEF31
:104E8000A7F0B60E046EFF0E056E0A0E066EADECB0
:104E9000B5F076EFA7F09BC61EF59CC61FF59DC624
:104EA00020F59EC621F5000E226E000E236E200E08
:104EB000246E420E256E27ECB0F0D8B062EFA7F05A
:104EC00064EFA7F06EEFA7F0930E046EFF0E056E71
:104ED0000A0E066EADECB5F076EFA7F0240E046E68
:104EE000FF0E056E140E066EADECB5F0290E060130
:104EF0008A6F960E896F7F0EE82EFED7892FFCD71A
:104F00008A2FFAD77CEFA6F0FEEFFFF0B8C5D9F4F0
:104F1000B9C5DAF4DEC4F6F4DDC4F7F4000EF86EB9
:104F20000800F550250AD8A498EFA7F09AEFA7F04B
:104F300092EFA8F0B8C5D9F4B9C5DAF4DE2A000EAC
:104F4000DD22000E0601F66F000EF56FF5C6FDF6C8
:104F5000F769F869B8C5D9F4B9C5DAF4DEC4F6F46E
:104F6000DDC4F7F4000EF86E0800F5502E0AD8A440
:104F7000BCEFA7F0BEEFA7F0D3EFA7F0B8C5D9F408
:104F8000B9C5DAF4DE2A000EDD22B8C501F5B9C5CF
:104F900002F5BAC503F5BBC504F521ECB2F001C5B5
:104FA000F7F602C5F8F6B8C5D9F4B9C5DAF4DEC427
:104FB000C3F5DDC4C4F5C3C5F6F4C4C5F7F4000EEB
:104FC000F86E0800F5C4C2F5F1EFA7F0C34BC42B8F
:104FD00001EFA8F06C0EC26F01EFA8F0C26B01EFF9
:104FE000A8F00501C2514C0AD8B4E6EFA7F02A0A8E
:104FF000D8B4EAEFA7F00A0AD8B4E6EFA7F0EEEFCC
:10500000A7F0C3C5F6F4C4C5F7F4000EF86E0800A7
:10501000F550660AD8A40FEFA8F011EFA8F089EFB9
:10502000A8F047EFA8F0BAC5D9F4BBC5DAF4DFC4DD
:10503000BCF5040EDE26DFC4BDF5000EDD22BCC5C6
:10504000D9F4BDC5DAF4DEC4BEF5DEC4BFF5DEC4F6
:10505000C0F5DEC4C1F552EFA8F0BAC5D9F4BBC59E
:10506000DAF4DFC4BCF5040EDE26DFC4BDF5000EA5
:10507000DD22BCC5D9F4BDC5DAF4DEC4BEF5DEC49C
:10508000BFF5DEC4C0F5DEC4C1F552EFA8F0C251D1
:105090004C0AD8B42DEFA8F0200AD8B413EFA8F02A
:1050A00052EFA8F0010EC325BC6F000EC421BD6FE6
:1050B000B8C5D9F4B9C5DAF4BCC5DEF4BDC5DDF4B4
:1050C0007BEFA8F0B6C581F5B7C582F5BEC583F5FF
:1050D000BFC584F5C0C585F5C1C586F5C3C5F6F461
:1050E000C4C5F7F4000EF86E0800F5C487F5DFECD0
:1050F00086F0A8EFA8F0C3C5F6F4C4C5F7F4000E17
:10510000F86E0800F550660AD8B462EFA8F089EF8F
:10511000A8F0B8C5D9F4B9C5DAF4DE2A000EDD224C
:10512000A8EFA8F0B8C5D9F4B9C5DAF4DEC4F6F42E
:10513000DDC4F7F4000EF86E0800F550016E026A47
:10514000B6C503F5B7C504F587ECB2F089EFA8F052
:10515000120075C505F576C506F577C507F578C55E
:1051600008F575C509F576C50AF577C50BF578C557
:105170000CF576EC9DF005C591F506C592F507C5D1
:1051800093F508C594F591C505F592C506F593C547
:1051900007F594C508F591C509F592C50AF593C5BB
:1051A0000BF594C50CF576EC9DF005C57DF506C5AF
:1051B0007EF507C57FF508C580F53C0E096E6C0EBF
:1051C0000A6E360E0B6E360E0C6E91C505F592C545
:1051D00006F593C507F594C508F576EC9DF005C571
:1051E0001EF506C51FF507C520F508C521F5CF0E2C
:1051F000226E070E236E500E246EB90E256E1BEC28
:105200009BF01EC579F51FC57AF520C57BF521C534
:105210007CF591C505F592C506F593C507F594C5CE
:1052200008F575C509F576C50AF577C50BF578C596
:105230000CF576EC9DF005C58DF506C58EF507C518
:105240008FF508C590F5AB0E226EAA0E236E2A0EBE
:10525000246EBE0E256E840E096E880E0A6E080E30
:105260000B6E3C0E0C6E91C505F592C506F593C507
:1052700007F594C508F576EC9DF005C51EF506C545
:105280001FF507C520F508C521F51BEC9BF01EC5D1
:1052900081F51FC582F520C583F521C584F57DC53F
:1052A00009F57EC50AF57FC50BF580C50CF58DC5E2
:1052B00005F58EC506F58FC507F590C508F576ECA2
:1052C0009DF005C585F506C586F507C587F508C5B2
:1052D00088F575C522F576C523F577C524F578C51B
:1052E00025F58DC509F58EC50AF58FC50BF590C559
:1052F0000CF581C505F582C506F583C507F584C59E
:1053000008F576EC9DF005C51EF506C51FF507C529
:1053100020F508C521F51BEC9BF01EC589F51FC5BE
:105320008AF520C58BF521C58CF589C51EF58AC582
:105330001FF58BC520F58CC521F579C509F57AC512
:105340000AF57BC50BF57CC50CF585C505F586C54D
:1053500006F587C507F588C508F576EC9DF005C507
:1053600022F506C523F507C524F508C525F51BEC70
:105370009BF01EC575F51FC576F520C577F521C5CF
:1053800078F5120000C77DF501C77EF502C77FF5ED
:1053900003C780F56DC57DF56EC57EF56FC57FF5DC
:1053A00070C580F5810E0501716FFF0E726F7DC5AE
:1053B00073F57EC574F57FC575F580C576F5180E55
:1053C000E7EFA9F0D8907633753374337333E82E52
:1053D000E2EFA9F0735171257B6F000E72217C6F93
:1053E0007CBFFCEFA9F07C5109E1170E7B5DD8A0D2
:1053F000FCEFA9F0FEEFA9F008EFAAF06DC56DF57E
:105400006EC56EF56FC56FF570C570F5CCEFAAF07F
:105410007CBF0DEFAAF00FEFAAF080EFAAF07BC5DA
:1054200071F5FF0E726FFF0E736F7F0E746F000EBB
:10543000756F71671EEFAAF026EFAAF07535753308
:10544000743373337233712F19EFAAF072C577F585
:1054500073C578F574C579F575C57AF50501775189
:105460007D15716F78517E15726F79517F15736F4D
:105470007A518015746F7151721173117411D8A41F
:1054800044EFAAF046EFAAF048EFAAF0FEEFA9F029
:105490007DC571F57EC572F57FC573F580C574F560
:1054A000200E58EFAAF0D8907433733372337133EF
:1054B000E82E53EFAAF07151721173117411D8B420
:1054C00064EFAAF066EFAAF06EEFAAF077517D279D
:1054D00078517E2379517F237A518023771D716F14
:1054E000781D726F791D736F7A1D746F71517D17FE
:1054F00072517E1773517F1774518017C4EFAAF051
:105500007DC571F57EC572F57FC573F580C574F5EF
:10551000200E90EFAAF0D890743373337233713346
:10552000E82E8BEFAAF07151721173117411D8A487
:105530009CEFAAF09EEFAAF0A8EFAAF0000E7D6FF4
:10554000000E7E6F000E7F6F000E806FC4EFAAF01A
:10555000D8907D35716F7E35726F7F35736F803572
:10556000746F7151721173117411D8B4BAEFAAF03B
:10557000BCEFAAF0C4EFAAF0000E7D6F000E7E6FA4
:10558000800E7F6FBF0E806F7DC56DF57EC56EF599
:105590007FC56FF580C570F512002EC505F52FC5C6
:1055A00006F530C507F531C508F52EC509F52FC537
:1055B0000AF530C50BF531C50CF576EC9DF005C547
:1055C00046F506C547F507C548F508C549F546C57A
:1055D00005F547C506F548C507F549C508F546C5AB
:1055E00009F547C50AF548C50BF549C50CF576EC34
:1055F0009DF005C542F506C543F507C544F508C548
:1056000045F5170E096E9A0E0A6ECC0E0B6E370E0C
:105610000C6E46C505F547C506F548C507F549C5ED
:1056200008F576EC9DF005C51EF506C51FF507C506
:1056300020F508C521F53F0E226E040E236EB60E2E
:10564000246EBA0E256E1BEC9BF01EC532F51FC5ED
:1056500033F520C534F521C535F5000E226E000E58
:10566000236E800E246E3F0E256E000E096E000E16
:105670000A6E000E0B6EBF0E0C6E46C505F547C5D3
:1056800006F548C507F549C508F576EC9DF005C552
:105690001EF506C51FF507C520F508C521F51BEC4D
:1056A0009BF01EC536F51FC537F520C538F521C559
:1056B00039F546C509F547C50AF548C50BF549C58D
:1056C0000CF542C505F543C506F544C507F545C5C6
:1056D00008F576EC9DF005C53AF506C53BF507C51E
:1056E0003CF508C53DF59F0E096EAA0E0A6E2A0EFE
:1056F0000B6E3D0E0C6E42C505F543C506F544C55F
:1057000007F545C508F576EC9DF005C522F506C5FB
:1057100023F507C524F508C525F536C51EF537C59B
:105720001FF538C520F539C521F51BEC9BF01EC5CA
:105730003EF51FC53FF520C540F521C541F53EC5E5
:105740001EF53FC51FF540C520F541C521F532C501
:1057500009F533C50AF534C50BF535C50CF53AC561
:1057600005F53BC506F53CC507F53DC508F576ECE6
:105770009DF005C522F506C523F507C524F508C526
:1057800025F51BEC9BF01EC52EF51FC52FF520C57A
:1057900030F521C531F51200096E0950D8B4D3EFA8
:1057A000ABF0D5EFABF0F7EFABF004BEDCEFABF056
:1057B000DAEFABF0F7EFABF001C505F502C506F582
:1057C00003C507F504C508F5051E061E071E081EBD
:1057D000052A000E06220722082205C50BF506C57C
:1057E0000CF507C50DF508C50EF5FFEFABF001C5CB
:1057F0000BF502C50CF503C50DF504C50EF50150FA
:10580000021003100410D8A408EFACF00AEFACF0BB
:1058100014EFACF0000E016E000E026E000E036E6F
:10582000000E046EA5EFACF0960E0A6E1EEFACF003
:105830000A2AD8900E320D320C320B32000E0B14A5
:10584000056E000E0C14066E000E0D14076EFE0E93
:105850000E14086E0550061007100810D8A433EF78
:10586000ACF035EFACF018EFACF043EFACF00A2A37
:10587000010E0B26000E0C220D220E22D8900E32A5
:105880000D320C320B32000E0B14056E000E0C1490
:10589000066E000E0D14076EFF0E0E14086E0550F6
:1058A000061007100810D8A458EFACF05AEFACF06F
:1058B00037EFACF062EFACF00A06D8900B360C363E
:1058C0000D360E360DBE67EFACF069EFACF071EF40
:1058D000ACF0020E0A606FEFACF071EFACF05CEF71
:1058E000ACF00AB076EFACF078EFACF079EFACF05A
:1058F0000D9ED8900A320AC505F5066A076A086A3D
:1059000005C508F5076A066A056A05500B120650B8
:105910000C1207500D1208500E120950D8B493EF14
